{
    "contractName": "FarmerRole",
    "abi": [
        {
            "inputs": [],
            "stateMutability": "nonpayable",
            "type": "constructor"
        },
        {
            "anonymous": false,
            "inputs": [
                {
                    "indexed": true,
                    "internalType": "address",
                    "name": "account",
                    "type": "address"
                }
            ],
            "name": "FarmerAdded",
            "type": "event"
        },
        {
            "anonymous": false,
            "inputs": [
                {
                    "indexed": true,
                    "internalType": "address",
                    "name": "account",
                    "type": "address"
                }
            ],
            "name": "FarmerRemoved",
            "type": "event"
        },
        {
            "inputs": [
                {
                    "internalType": "address",
                    "name": "account",
                    "type": "address"
                }
            ],
            "name": "addFarmer",
            "outputs": [],
            "stateMutability": "nonpayable",
            "type": "function"
        },
        {
            "inputs": [
                {
                    "internalType": "address",
                    "name": "account",
                    "type": "address"
                }
            ],
            "name": "isFarmer",
            "outputs": [
                {
                    "internalType": "bool",
                    "name": "",
                    "type": "bool"
                }
            ],
            "stateMutability": "view",
            "type": "function"
        },
        {
            "inputs": [],
            "name": "renounceFarmer",
            "outputs": [],
            "stateMutability": "nonpayable",
            "type": "function"
        }
    ],
    "bytecode": "608060405234801561001057600080fd5b50610023336001600160e01b0361002816565b610101565b61004081600061007760201b6101b61790919060201c565b6040516001600160a01b038216907f2e0ded4123377a3c2bc9a26f1717655a129e2f20752924d42e730ec89c83dbd090600090a250565b6001600160a01b03811661008a57600080fd5b61009d82826001600160e01b036100cc16565b156100a757600080fd5b6001600160a01b0316600090815260209190915260409020805460ff19166001179055565b60006001600160a01b0382166100e157600080fd5b506001600160a01b03166000908152602091909152604090205460ff1690565b610280806101106000396000f3fe608060405234801561001057600080fd5b50600436106100415760003560e01c806380c3f96d1461004657806380fc0ce41461006e578063b942906914610076575b600080fd5b61006c6004803603602081101561005c57600080fd5b50356001600160a01b03166100b0565b005b61006c6100ce565b61009c6004803603602081101561008c57600080fd5b50356001600160a01b03166100d9565b604080519115158252519081900360200190f35b6100b9336100d9565b6100c257600080fd5b6100cb816100f1565b50565b6100d733610139565b565b60006100eb818363ffffffff61018116565b92915050565b61010260008263ffffffff6101b616565b6040516001600160a01b038216907f2e0ded4123377a3c2bc9a26f1717655a129e2f20752924d42e730ec89c83dbd090600090a250565b61014a60008263ffffffff61020216565b6040516001600160a01b038216907fa5e0f060af304ab17dd418c7927e3da3ae7868189bf387aee09ab179ccc572f290600090a250565b60006001600160a01b03821661019657600080fd5b506001600160a01b03166000908152602091909152604090205460ff1690565b6001600160a01b0381166101c957600080fd5b6101d38282610181565b156101dd57600080fd5b6001600160a01b0316600090815260209190915260409020805460ff19166001179055565b6001600160a01b03811661021557600080fd5b61021f8282610181565b61022857600080fd5b6001600160a01b0316600090815260209190915260409020805460ff1916905556fea2646970667358221220a5683636f890f279cd5caf830ed393878e9b263447d95de8da96623a997f862764736f6c63430006070033",
    "sourcePath": "/Users/buuthongtran/Downloads/SupplyChainTracking/project-6/contracts/coffeeaccesscontrol/FarmerRole.sol",
    "compiler": {
        "name": "solc",
        "version": "0.6.7+commit.b8d736ae"
    },
    "functionHashes": {
        "addFarmer(address)": "80c3f96d",
        "isFarmer(address)": "b9429069",
        "renounceFarmer()": "80fc0ce4"
    },
    "gasEstimates": {
        "creation": {
            "codeDepositCost": "128000",
            "executionCost": "infinite",
            "totalCost": "infinite"
        },
        "external": {
            "addFarmer(address)": "infinite",
            "isFarmer(address)": "infinite",
            "renounceFarmer()": "infinite"
        },
        "internal": {
            "_addFarmer(address)": "infinite",
            "_removeFarmer(address)": "infinite"
        }
    }
}